:020000040800F2
:1000000028210124F5030008E99F00089D890008C4
:10001000599C0008C51C0008DDC300080000000052
:10002000000000000000000000000000B102000815
:1000300035240008000000000D03000825A8000872
:100040000F0400080F0400080F0400080F04000844
:100050000F0400080F0400080F0400080F04000834
:100060000F0400080F0400080F040008751F0008A3
:10007000811F00088D1F00080F0400080F040008EE
:100080000F0400080F0400080F040008552F000893
:100090000F0400080F0400080F0400080F040008F4
:1000A0000F0400080F0400080F0400080F040008E4
:1000B0000F0400080F0400080F0400080F040008D4
:1000C0000F0400080F0400080F0400080DA6000824
:1000D0000F0400080F0400080F0400080F040008B4
:1000E0000F0400080F040008000000000F040008BF
:1000F0000F0400080F0400080F0400080F04000894
:100100000F0400080F0400080F0400080F04000883
:10011000C5AB000881AC0008C1A90008CDA9000842
:10012000991F00080F0400080F0400080F040008BE
:100130000F0400080F0400080F0400080F04000853
:1001400000000000000000000000000000000000AF
:100150000F0400080F0400080F0400080F04000833
:100160000F0400080F0400080F0400080F04000823
:100170000F0400080F0400080F040008000000002E
:100180000F0400080F0400080F0400080F04000803
:100190000F0400080F0400080F0400080F040008F3
:1001A0000F0400080F0400080F0400080F040008E3
:1001B0000F0400080F0400080F0400080F040008D3
:1001C0000F0400080F0400080F0400080F040008C3
:1001D0000F0400080F0400080F0400080F040008B3
:1001E0000F0400080F0400080F0400080F040008A3
:1001F0000F0400080F0400080F0400080F04000893
:100200000F0400080F0400080F0400080F04000882
:100210000F0400080F0400080F0400080F04000872
:100220000F0400080F0400080F040008000000007D
:100230000F0400080F040008000000000F0400086D
:100240000F0400080F0400080F0400080F04000842
:100250000F0400080F0400080F0400080F04000832
:100260000F0400080F0400080F0400080F04000822
:100270000F0400080F0400080F040008000000002D
:100280000F0400080F0400080F040008000000001D
:10029000000000000F040008DFF810D000F0EAFFB3
:1002A0000048004729F90008AFF300802821012405
:1002B0002C4B19680868B0E8F04F80F30988BFF349
:1002C0006F8F4FF0000080F311887047000000002E
:1002D00008480068006880F308884FF0000080F349
:1002E000148862B661B6BFF34F8FBFF36F8F00DF24
:1002F00000BF00BF08ED00E0DFF80C00016841F42A
:1003000070010160704700BF88ED00E0EFF30980E5
:10031000BFF36F8F134B1A681EF0100F08BF20ED4C
:10032000108A20E9F04F106009B44FF0500080F3BC
:100330001188BFF34F8FBFF36F8F12F00FFA4FF09A
:10034000000080F3118809BC19680868B0E8F04F14
:100350001EF0100F08BFB0EC108A80F30988BFF3BD
:100360006F8F7047E8000024EFF3058070470000AE
:100370000246D2E84F0F411CC2E8431F03B1F8E721
:100380007047024652E8000F411C42E8001303B1D7
:10039000F8E770470246D2E84F0FC2E8431F03B1A7
:1003A000F9E77047024652E8000F42E8001303B134
:1003B000F9E77047024652E8000F830103D3BFF309
:1003C0002F8F0020704700F00040084342E80003F0
:1003D00003B1F0E77047024652E8000F800103D2F4
:1003E000BFF32F8F0020704742E8001303B1F3E7FB
:1003F000012070470648804706480047FEE7FEE7B1
:10040000FEE7FEE7FEE7FEE7FEE7FEE7FEE7FEE7C4
:10041000E5A80008990200082DE9F05F05460020D4
:1004200092469B4688460646814640241BE0284665
:1004300041464746224600F0EEF853465A46C01A57
:10044000914110D311461846224600F0D5F82D1AD6
:1004500067EB01084F4622460120002100F0CCF84E
:1004600017EB00094E41201EA4F10104DFDC4846D1
:1004700031462A464346BDE8F09FA0F141011929C3
:1004800000D82030704710B540EA01040346A407A5
:1004900003D009E010C9121F10C3042AFAD203E0E6
:1004A00011F8014B03F8014B521EF9D210BDD2B224
:1004B00001E000F8012B491EFBD270470022F6E74D
:1004C00010B513460A4604461946FFF7F0FF2046CA
:1004D00010BD30B505462A460B4612F8010B13F83D
:1004E000014B08B1A042F8D01CB1002802D06D1C0D
:1004F000F1E7284630BD421C10F8011B0029FBD152
:10050000801A704710B5002200E0521C835C8C5C9E
:10051000A34201D1002BF8D1D8B2E1B2401A10BDEC
:10052000034611F8012B00F8012B002AF9D11846D7
:10053000704730B505460020034600E05B1C93423F
:1005400005D2EC5CC85C201A01D1002CF6D130BD7C
:1005500070B50F4D00B92868002412E00A4602E089
:100560009E4203D0521C1378002BF9D1DAB22243F9
:1005700005D02BB124B1002100F8011B04E0044692
:10058000401C0678002EE9D12860204670BD00008E
:10059000CC0300240FB400B58DB010A909900B90C6
:1005A00000914FF0FF300A9000200C900548069013
:1005B000054807906A4609A80F9900F0B3FB0DB0F3
:1005C0005DF814FB410D00085F0D000830B50B46C7
:1005D000014600202022012409E021FA02F59D4273
:1005E00005D303FA02F5491B04FA02F52844151E47
:1005F000A2F10102F1DC30BD202A04DB203A00FA2E
:1006000002F1002070479140C2F1200320FA03F369
:10061000194390407047202A04DB203A21FA02F067
:100620000021704721FA02F3D040C2F1200291402C
:100630000843194670472DE9FF4F1C4681B0002141
:10064000D4E9016791464FF0FF358A468846A16993
:100650006D1C02988847216A834688470028F6D196
:10066000BBF1FF3F0CD026F4C066002F1ADD7006E8
:1006700015D5BBF12B0F0AD0BBF12D0F0FD104E024
:100680004FF0FF3005B0BDE8F08F46F48066A169F9
:100690006D1C029888477F1E8346002F02DDBBF148
:1006A000300F03D0B9F1000F2AD025E0A1696D1CED
:1006B00046F400767F1E029888478346002F05DDAA
:1006C000BBF1780F06D0BBF1580F03D0B9F1000F82
:1006D00010D011E0B9F1000F02D0B9F1100F0BD119
:1006E000A1696D1C26F400767F1E02988847834618
:1006F000102000E0082081464FEAE970009017E0E2
:100700000A20F8E74346AAFB092803FB0980DDF825
:1007100000C07F1E0AFB0C0112EB0B0A41EBEB78C9
:10072000A16946F4007605F10105029888478346E1
:10073000002F06DD4946584600F0C5FD5FEA000B74
:10074000E0D5E16902988847B00502D46FF0010056
:1007500098E7F00718D1700610D57005514605D5F9
:100760000023D1EB030163EB080200E0424620685E
:10077000031D23600068C0E9001205E02068011D28
:1007800021600068C0E900A828467BE72DE9FF5FEB
:100790001D464FF0FF3BD5E9014691465F464FF0BD
:1007A0000008A9697F1C01988847296A8246884702
:1007B0000028F6D1BAF1FF3F0CD024F4C064002E1B
:1007C00019DD600614D5BAF12B0F09D0BAF12D0F3F
:1007D0000ED103E0584604B0BDE8F09F44F48064B5
:1007E000A9697F1C01988847761E8246002E02DD8B
:1007F000BAF1300F03D0B9F1000F26D032E0A96969
:10080000761E44F400747F1C019888478246002EAF
:1008100005DDBAF1780F06D0BAF1580F03D0B9F15F
:10082000000F10D01EE0B9F1000F02D0B9F1100F87
:1008300018D1A969761E24F400747F1C019888479A
:100840008246102002E0082000E00A20814609E0EC
:1008500008FB0908A969761E44F400747F1C0198FE
:1008600088478246002E05DD4946504600F02BFDA4
:100870000028EDDAE96901988847A00502D46FF0F5
:100880000100A8E7E00725D1600613D5600502D571
:10089000C8F1000000E0404629680A1D2A60096886
:1008A000220501D5087015E0220701D5088011E066
:1008B00008600FE02868011D29600068210502D545
:1008C00080F8008006E0210702D5A0F8008001E052
:1008D000C0F8008038467EE72DE9FF5FD2E901A726
:1008E0004FF00008916999461446DDF838B0464645
:1008F00001988847054659EA0B0005D009E0A1692F
:10090000761C019888470546216A284688470028B2
:10091000F5D1681C03D05FEACA7005D015E04FF02E
:10092000FF3004B0BDE8F09F2068011D2160D0F8C1
:1009300000800AE05FEACA7001D108F8015BA16992
:10094000761C7F1E019888470546002F1ADD681C1B
:1009500018D0B9F1000F0DD0E81705EBD0604211A7
:1009600020F01F0059F822102A1A0120904001425D
:10097000E0D107E0BBF1000FDCD1216A28468847AF
:100980000028D7D0E16901988847BBF1000F07D153
:10099000002E05DD5FEACA7002D1002188F8001040
:1009A000A068B84203DDBBF1000F03D017B16FF0B0
:1009B0000100B6E73046B4E72DE9FF4F087883B071
:1009C0009946FF2805D0491C2D2804D0002400207A
:1009D00008E000200BE00124F9E700EB800003EBC6
:1009E0004000491C0B78FF2BF7D104B14042002393
:1009F0000293147819461D462D2C01D02B2C04D1BE
:100A0000521C2D2C13D000240294AA461478FF2CDB
:100A10000FD00A25A3FB057801FB05814FF0000CE0
:100A200003FB0C11521CE3194AEB0101EEE7012410
:100A3000EAE7814453EA010002D019F5C87F06DADB
:100A400003980021C0E9001107B0BDE8F08F002530
:100A5000AE4E2F46DFF8B882184600F038FECDE9DA
:100A60000001B9F1000002DAC9F1000400E0044617
:100A70000023A74A1AEB030B42EB045A12E0E007EB
:100A800007D02A4633463846414600F06EFA0746FC
:100A900088462A4633461046194600F066FA05464F
:100AA0000E466410002CEAD1DDE90001B9F1000F17
:100AB0005A46534606DA00F0CAFA3A46434600F070
:100AC000C6FA05E000F051FA3A46434600F04DFA06
:100AD000029A0AB181F00041039AC2E90001B3E72A
:100AE0002DE9FF4F1F468DB0D7E901464FF0FF3883
:100AF0002E2045464FF000090B90B9696D1C0E98E9
:100B00008847396A824688470028F6D1BAF1FF3F04
:100B10000AD024F4D064002E11DDBAF12B0F08D0D6
:100B2000BAF12D0F0BD102E0404611B08DE744F42D
:100B30008064B9696D1C0E9888478246761E6946A6
:100B4000600501D52D2000E02B208DF8000001F17B
:100B5000010B0DF1200809E0B9696D1C0E9888475A
:100B600082460F9844F40074761E0560002E02DD64
:100B7000BAF1300FF0D00B998A453ED144F0800491
:100B800006E00F99681CA9F1010944F4007408609B
:100B9000B9696D1C761E0E98884782463028F0D0C1
:100BA0002BE00B998A4505D1200603D444F080043C
:100BB000761E18E050460DF08FF808B30DF11301C2
:100BC000761E44F400748B4508D2AAF130000BF86D
:100BD000010B200607D5A9F1010003E0200602D48D
:100BE00009F101008146A00502D50F99681C086033
:100BF000B9696D1C0E9888478246002ED1DC53E0FF
:100C0000002E51DDBAF1650F02D0BAF1450F4BD17C
:100C1000A00549D5B9696D1C24F44074761E0E9860
:100C200088478246002E0CDD2B2804D0BAF12D0F08
:100C300007D144F48074B9696D1C0E9888478246C8
:100C4000761EE00501D52D2100E02B2108F8011BBF
:100C5000CDF82C8021E00DF12901761E44F40074BA
:100C600088450CD2AAF1300010F0FF0088F800008F
:100C700002D10B99884509D908F1010806E0E00581
:100C800001D5244801E042F20F708146B9696D1C1C
:100C90000E98884782460F980560002E04DD504666
:100CA0000DF01AF80028D6D1F9690E988847FF2070
:100CB0008BF8000088F800000020069007904B4653
:100CC0006A4608A906A8FFF777FEA00502D46FF0D0
:100CD00001002AE714F0240F0AD0E00714D1DDE95F
:100CE00006123868031D3B600068C0E900120BE083
:100CF000DDE9060100F0F7FC0146E00704D13868A1
:100D0000021D3A600068016028460EE700001440AA
:100D10000000F03FF1D8FFFF026811441378016032
:100D200018467047D160044951610449116200219D
:100D30001161114600F0D6BA190D0008BD12000865
:100D4000426842B1016811F8013B23B1521EC0E96B
:100D50000012184670470121C160881E7047426822
:100D60005AB1C368016843B983688B4205D0491EF4
:100D7000521CC0E90012002070474FF0FF3070474E
:100D80000FB4002300B589B00CA900910B996FF046
:100D90000042CB601E4B06931E4B07930423CDE904
:100DA00001321D4A089202466B460020FFF798FE6A
:100DB00009B05DF814FB70B586B006464FF0FF3001
:100DC0000091CDE90101002015460C460490324601
:100DD000694604A8FFF7D4FF02460498211825B1FC
:100DE00008B1084600E020462860049800280DD08D
:100DF000002A02DD0098884208D0081B0094CDE943
:100E000001043246694604A8FFF7BAFF06B070BD78
:100E1000410D00085F0D0008BD1200082DE9FE4FCE
:100E2000804681EA0300C00F0C46009021F000418B
:100E300023F00045B8EB0200A94105D24046214607
:100E400090461C460B46024623F00040104347D014
:100E5000270DC7F30A00C3F30A510290401A01900C
:100E600040286BDAC3F3130040F4801B00989246CD
:100E700020B10023D2EB030A63EB0B0B0198594618
:100E8000C0F140025046FFF7B7FB06460D465046FC
:100E90005946019A00F000FA10EB08006141002465
:100EA00087EA115284EAE7731A4340D0009A62B38A
:100EB000019A012A4FEA075215DC001B61EB02017F
:100EC0004FF0004202EA0752CDE90042001C41F512
:100ED000801132462B4600F0ACFB03B0BDE8F08F2A
:100EE00040462146F9E7001B61EB0201001C41F579
:100EF000801300185B412018A2F5001747EB03018F
:100F000040EAD570B6196D4111E06D084FEA36061A
:100F100045EAC0754FEA0752001B61EB0201001C55
:100F200041F5801149084FEA30000019514132461D
:100F30002B4603B0BDE8F04F00F06CBB00980122D7
:100F400040000023D0EB020263EBE07300982146DF
:100F50004FEAE074B8EB000061EB0401E9E783F0CD
:100F600000435BE781F0004158E72DE9FE4F81EA3D
:100F7000030404F0004421F0004100944FF0000B02
:100F800023F0004350EA01045ED052EA03045BD030
:100F9000C3F30A54C1F30A552C44A4F2F334019468
:100FA000A0FB0254C1F3130141F48011C3F31303F6
:100FB00043F4801301FB024400FB034E840A970AAA
:100FC00044EA815447EA8357A4FB076802958D0AD7
:100FD00005FB07854FEA932C04FB0C542705029D63
:100FE0004FEA065847EA1637B5EB08056EEB070CD3
:100FF000870E920E47EA811742EA8312A7FB02018D
:10100000B6EB0B0164EB00042B0D43EA0C335E18C6
:1010100044EB1C50DA465146E7FB0201C5F31304CA
:101020004FEA0B3343EA14534FEA0432019C43EA7C
:101030000603A4F10C040294009CCDE900B400F076
:10104000F8FA03B0BDE8F08F00200146F9E72DE97A
:10105000F04D81EA030404F0004B21F000451446F2
:101060004FF0000A23F0004150EA050220D054EA74
:1010700001021DD0C5F30A570246C5F31303C1F39D
:101080001300C1F30A5640F4801543F48013A7EB14
:101090000608101BD64608F2FD3873EB050002D394
:1010A00008F1010801E092185B41B8F1000F03DA82
:1010B00000200146BDE8F08D00204FF48011064667
:1010C00084460EE0171B73EB050705D3121B63EB79
:1010D000050306434CEA010C49084FEA3000921818
:1010E0005B4150EA0107EDD152EA030012D082EAD7
:1010F000040083EA0501084305D0101BAB4106D26A
:101100000122002306E000224FF0004302E06FF0CE
:10111000010253101AEB06004CEB085110EB0A00C9
:1011200041EB0B01BDE8F04D00F074BA2DE9FE4F24
:10113000C3F30A5701F000450024C1F30A56C3F374
:101140001303C1F3130143F4801312EB020AA64602
:1011500041F48011009543EB030CA7F1010B16E05D
:10116000B0EB0A0061EB0C01071E71F1000707DA12
:101170004FF00008D0EB080085F0004568EB010156
:10118000171A73EB0107EBD3761E001849415E4531
:10119000F6DA50EA010209D0CDE900E50022134653
:1011A000029600F046FA03B0BDE8F08F20460099A1
:1011B000F9E7C1F30A52C1F3130140F2FF3341F4DE
:1011C00080119A4202DA00200146704740F2334310
:1011D0009A42A2F2334202DC5242FFF71CBAFFF7F6
:1011E0000BBA000030B5041E71F1000404DB4FF0AF
:1011F0000044404264EB0101141E73F1000405DB5E
:101200001C464FF00043524263EB0403994208BF6F
:10121000904230BD70B5044601F000450020054302
:1012200004D14FF00045644265EB010103F0004535
:10123000284305D118464FF00043524263EB0003A8
:10124000101B73EB010002D24FF0004009E082EA6C
:10125000040283EA01034FF000501A4301D14FF01A
:10126000C0404FEA2062EFF3008162F31F6181F317
:10127000008870BD064C074D06E0E06840F00103B1
:1012800094E8070098471034AC42F6D3FFF708F80B
:10129000844B0108A44B0108202A06DBCB17203A17
:1012A00041FA02F043EAE07306E041FA02F3D0406B
:1012B000C2F120029140084319467047C0B24FF472
:1012C000F05100F02DBA3A2800D2303820F0200238
:1012D000412A01D3A2F13700884201D34FF0FF30F9
:1012E000704700002DE9F34F8BB04FF0000801F17B
:1012F0000C000C464FF0010B46460DF1080A019018
:101300006269012101989047051E2DD0252D2CD012
:10131000216A8847C0B16269012101989047216A1A
:1013200088470028F7D1411E62690198904700E084
:10133000761CA1690B988847216A88470028F7D155
:10134000E1690B988847DBE7A1690B988847074656
:10135000A84201D1761CD3E7E1690B9888477F1C2E
:1013600002D1B8F1000F6FD047E1002762693D4616
:101370003946019890472A2804D1626901210198D1
:1013800090470125DFF88892626901210198904712
:10139000A0F130010A290AD24F45E5DC07EB8701AD
:1013A00000EB4107303FDFD445F01005ECE7E906DC
:1013B00001D46FF000476C280AD04C2814D068285C
:1013C00015D06A280DD074281CD07A281AD01DE0B8
:1013D00062690121019890476C2802D045F004050C
:1013E00014E045F002050DE045F020050AE06269D1
:1013F000012101989047682802D045F0080505E0D2
:1014000045F400656269012101989047C4E90157DC
:1014100065283DD019DC58287AD00CDC452837D017
:1014200004DC252826D0412831D131E046282FD0B0
:1014300047282CD12CE05B2877D0612828D063285E
:101440007CD0642823D15AE0D1E06F2848D008DC52
:1014500066281DD067281BD0692821D06E2816D198
:1014600027E0702845D0732868D0752847D07828A1
:101470000DD14DE0A1690B988847054625283FF41A
:1014800069AFE1690B9888476D1C3FF46AAFB4E01F
:1014900023466A466FF001000B99FFF721FB9FE09E
:1014A00045F040006060A80723464FF0000236D4A4
:1014B0003EE0E8077FF447AF2068011D2160006827
:1014C000290501D506701BE7290701D5068017E716
:1014D000A90703D5F117C0E9006111E706600FE71E
:1014E00045F040006060A80723464FF0080216D47C
:1014F0001EE040F60E0125EA0100606016E045F0AE
:1015000040006060A80723464FF00A0207D40FE0AE
:1015100045F040006060A80708D5234610226FF010
:1015200001000B99FFF787F85AE007E023461022E5
:101530006FF001000B99FFF729F951E04FF0000916
:101540004F464B46632802D05B2807D041E0207904
:10155000C00601D40120A06001273AE062690121A0
:10156000019890475E2805D14FF00109626949460C
:1015700001989047216939B900210A46534643F83A
:101580002120491C0829FADBB0B3216969B9C117C8
:1015900000EBD16253110AEB830122F01F02821A81
:1015A00001200B68904003430B60626901210198A0
:1015B00090475D28E8D1B9F1000F09D000205146CD
:1015C00051F82020D24341F82020401C0828F7DBA6
:1015D00002AB224600976FF001000B99FFF77CF9F0
:1015E00000280CDA401C08D1BBF1000F05D04FF0E9
:1015F000FF300DB0BDE8F08FFFE74046F9E7E9079F
:1016000001D108F1010806444FF0000B78E6000014
:10161000CCCCCC0C10B5141E73F1000408DA401CBD
:1016200041F1000192185B411A4301D120F0010001
:1016300010BD2DE9F04D92469B4611B1B1FA81F2F1
:1016400002E0B0FA80F220329046FEF7D5FF044661
:101650000F4640EA0A0041EA0B0153465A46084346
:1016600013D0114653EA010019D0C8F14002504688
:10167000FEF7D1FF05460E46504659464246FEF754
:10168000BBFF084305D0012004E020463946BDE8F1
:10169000F08D0020054346EAE0762C4337430A9854
:1016A0006305E40AA0EB08000022FD0A44EA47545F
:1016B0000A3002D500200146E9E701051019694109
:1016C000DDE9084500196941BDE8F04DA2E70EB516
:1016D00040F2334202920022CDE900221346FFF786
:1016E000A8FF03B000BD01F0004330B421F0004179
:1016F00050EA010206D00A0DA2F56072C1F313018F
:10170000002A02DC30BC00207047440F44EAC104C8
:10171000C100E01830BC00EBC25000F015B800006A
:101720007F2801D9002208E0064A02EB5002C007D8
:10173000127800D1120902F00F02012090400840F7
:1017400070470000C84501080029A8BF7047401C29
:10175000490008BF20F00100704710B4B0FA80FCC7
:1017600000FA0CF050EA010404BF10BC704749B104
:10177000CCF1200421FA04F411FA0CF118BF012174
:1017800021430843A3EB0C01CB1D4FEA00614FEA54
:10179000102042BF002010BC704700EBC350104423
:1017A0000029A4BF10BC7047401C490008BF20F0AE
:1017B000010010BC704770B58C1810F8015B15F073
:1017C000070301D110F8013B2A1106D110F8012BB3
:1017D00003E010F8016B01F8016B5B1EF9D12B07D8
:1017E00005D40023521E0DD401F8013BFAE710F88E
:1017F000013BCB1A921C03E013F8015B01F8015B7B
:10180000521EF9D5A142D8D3002070BD10B52DEDE0
:10181000028BB0EE408B0324B0EE480B10F098F929
:101820000A4920460EF0EAFF0848B0EE401B90ED52
:10183000082B81EE020B30EE081BB7EE000B30EEEA
:10184000482BBDEC028B81EE020B10BD583D010808
:1018500010B52DED028BB0EE408B0324B0EE480B9B
:1018600010F076F90A4920460EF0C8FF0848B0EE9D
:10187000401B90ED082B81EE020B30EE481BB7EEBB
:10188000000B38EE002BBDEC028B81EE020B10BD7D
:10189000A03E01082DE9F0478046002500260524DA
:1018A000DFF84090C4F10507A74200DB274698ED1A
:1018B0000A0B09EBC50138460EF0A0FF3D44681C39
:1018C00009EBC00090ED001B3046761C80EE012B2A
:1018D00008EBC00080ED122BAD1C641E002CE1DA79
:1018E000BDE8F087583F010800F1480105200EF0DF
:1018F00085BF000010B5ADF5A46D40F2145103A8EA
:10190000FEF7DCFD10F0BAFC274800210BF0D4FCF8
:101910002C4C26A026A153EC102BCDE900102068FA
:1019200026A107F02BFB2048002114300BF0C4FC4B
:1019300025A01FA153EC102BCDE9001020681FA19A
:1019400007F01CFB1848002141300BF0B5FC1FA02C
:1019500017A153EC102BCDE90010206817A107F058
:101960000DFB10F0ABFC206808F03FFB0446B4B15F
:10197000174B18A203A9009418A00DF043FF03A869
:10198000FEF7B9FD503083B203AA19A11AA001F0E5
:10199000ADF820460CF0C4FE0DF5A46D10BD18A0E6
:1019A0000AF062FDF8E70000CC0D01246C6F6E00B8
:1019B00070726F706572747900000000256625737F
:1019C000257300002C0000246C617400796177009D
:1019D000EC02002425732573000000007B22707543
:1019E00062223A2200222C226D7367223A007D0087
:1019F0004150505F707562004D515454000000001A
:101A0000C9CFB1A8D0C5CFA2D7AABBBBCAA7B0DCEB
:101A10000D0A00000D4808F0EDFE0D4C60614FF01E
:101A2000FF35E168606E0EF015FA38B1E5600948DF
:101A300005F032FE01200EF04BF8F2E7606F0EF079
:101A400076F84006F6D5FFF755FFF3E79C47010807
:101A5000180000241C14002410B504462DED088B3A
:101A6000B0EE408BB0EE41AB86B0B0EE4A0B9FEDCE
:101A700025BBB0EE4B1B0BF097FAB0EE409BB0EEDF
:101A80004B1BB1EE480B0BF08FFAB0EE491B04A8CC
:101A900010F0CEF8B0EE4B1B0BF086FA9DED041B58
:101AA00004A810F0C5F8B5EEC00BF1EE10FA08D09E
:101AB000B0EEC01B9FED152BB4EE421BF1EE10FAF9
:101AC00016D18DED000B9DED040BB5EEC00BF1EEC4
:101AD00010FA02D13AEE480B01E0B1EE400B8DED69
:101AE000020B0199039861F31E0001909DED000B1C
:101AF000002C03D09DED041B84ED001B06B0BDEC53
:101B0000088B10BD0000000000807640000000003F
:101B10000080664088B09FED151BB0EEC02B8DEDA8
:101B2000062B9DED062B31EE422B8DED042B9DED0A
:101B3000042BB5EEC02BF1EE10FA04DD9DED042B65
:101B400031EE421B01E09DED061B8DED061B9DED68
:101B5000061B8DED001B8DED020B0199039861F3BF
:101B60001E0001909DED000B08B0704700000000C2
:101B70000000B03F10B52DED0E8BB0EE418B0FF095
:101B8000E7FFB0EE40ABB0EE480B0FF0E1FFB0EE78
:101B9000408BB7EE001B3AEE080B30EE410BB1EE76
:101BA000081B80EE019B9FED45EBB5EEC08BF1EE7F
:101BB00010FA04D1B5EEC09BF1EE10FA7ADD2AEEF0
:101BC000080BB5EE001B20EE01ABB0EE490B0FF099
:101BD000BFFFB0EE40CB29EE0CBBB0EE00DBB0EEA9
:101BE0004A0B0BEE0D0B20EE0A0BB5EEC00BF1EE1F
:101BF00010FA1DDB3AEE0BABB5EEC0ABF1EE10FA0E
:101C000004D20BF025FBB1EE400B01E00BF020FB02
:101C100030EE0A0B0AF004FFB5EEC00BF1EE10FA3D
:101C200001D08CEE00EB3EEE000B30EE099B17E08E
:101C3000B1EE400B0BF00CFB3AEE0B1BB1EE411B6F
:101C40000AF05EFDB0EE082B80EE021BB0EE410BF9
:101C50000AF096FFB0EE491B21EE0D1B01EE009B32
:101C6000B0EE490B0FF074FF30EE080B0BF0F0FAFA
:101C7000B5EEC09BF1EE10FA04D230EE491B88EEAF
:101C8000019B01E039EE009B20EE0D0B39EE481B65
:101C900081EE008BB0EE480B0FF05AFF30EE090BCF
:101CA0000BF0D6FA30EE081B89EE010BBDEC0E8B63
:101CB00010BDFFE7B0EE4E0BF8E70000000000009B
:101CC00000000000FEE700002DE9F04107462DED81
:101CD000068BB0EE40ABB0EE4A0B0FF039FFB0EE22
:101CE000409BB0EE4A8B00250124DFF85C80C4F1F4
:101CF000060000EBD0704610B0EE490B08EBC501B2
:101D000030460EF07BFDB0EE481B354420EE010B53
:101D1000681C08EBC00090ED001B07EBC40080EED0
:101D2000012B80ED002BAD1CB0EE480BB0EE4A8BC2
:101D300020EE080BB0EE408B641C062CD7DDBDEC0A
:101D4000068BBDE8F0810000803D01082DE9F041DF
:101D500007462DED068BB0EE40ABB0EE4A0B0FF010
:101D6000F7FEB0EE409BB0EE4A8B00250124DFF871
:101D70005C80C4F1060000EBD0704610B0EE490B59
:101D800008EBC50130460EF039FDB0EE481B354476
:101D900020EE010B681C08EBC00090ED001B07EB68
:101DA000C40080EE012B80ED002BAD1CB0EE480B83
:101DB000B0EE4A8B20EE080BB0EE408B641C062C74
:101DC000D7DDBDEC068BBDE8F0810000C83E010800
:101DD0002DE9F047814600250027012605241DE056
:101DE000C4F10508A04500DBA046DFF840A099ED4E
:101DF0000A0B0AEBC50140460EF000FD4544681C85
:101E00000AEBC00090ED001B38467F1C80EE012BD2
:101E100009EBC00080ED1E2BAD1C641EB442DFDA5E
:101E2000761C062EDADBBDE8F0870000E83F0108EB
:101E30002DE9F041074688462DED048BB0EE409B1E
:101E4000B7EE008B00250124C4F1050628EE098BAE
:101E500007EBC50130467831B0EE490B0EF0CEFCF1
:101E600020EE080B08EBC40080ED000B35446D1C20
:101E7000641C062CE8DBBDEC048BBDE8F08100009F
:101E80002DE9F047804600250027002605241AE0AA
:101E9000C4F10509DFF83CA098ED0A0B0AEBC50177
:101EA00048460EF0ABFC4D44681C0AEBC00090EDB8
:101EB000001B38467F1C80EE012B08EBC00080ED34
:101EC0003C2BAD1C641EB442E2DA761C062EDDDB30
:101ED000BDE8F087504101082DE9F04107468846EA
:101EE0002DED048BB0EE409BB7EE008B0025002457
:101EF000C4F1050607EBC5013046F031B0EE490BE1
:101F00000EF07CFC20EE080B08EBC40080ED000B0B
:101F100035446D1C28EE098B641C062CE8DBBDECF7
:101F2000048BBDE8F081000070B50F4CA1880F4A0A
:101F300002EBC10102680A6040684860A088401C4A
:101F400080B2A0802188884201D30020A080084D63
:101F500028680DF0B1FF2188884204D22868BDE8C6
:101F600070400EF00DB870BD9A00002424040024C7
:101F700088000024014801F0C1BC00004443002453
:101F8000014801F0BBBC0000BC430024014801F043
:101F9000B5BC000034440024014801F0AFBC00008F
:101FA000A413002410B52C4A016891423AD02A4A61
:101FB0001832914236D0284A3032914232D0264AE5
:101FC000483291422ED0244A603291422AD0224A8D
:101FD0007832914226D0204A9032914222D01E4A35
:101FE000A83291421ED01D4A91421BD01B4A183282
:101FF000914217D0194A3032914213D0174A4832D1
:1020000091420FD0154A603291420BD0134A783278
:10201000914207D0114A9032914203D00F4AA83220
:10202000914214D1CAB2103A1823B2FBF3F20C4C0D
:1020300002F00703E35CC365032A04D96FF30901C7
:10204000091D816506E06FF30901816502E021F059
:10205000FF018165806D10BD100002401004024038
:10206000283C010810B501680123224CCAB2A142E4
:102070001BD0204C1434A14217D01E4C2834A1424E
:1020800013D01C4C3C34A1420FD01A4C5034A14206
:102090000BD0184C6434A14207D0164C7834A142BE
:1020A00003D0144C8C34A1420FD1083A1421B2FB56
:1020B000F1F1114A02EB810202660F4A8032426658
:1020C00001F01F018B40836610BD103A1824B2FB4B
:1020D000F4F20A4C2144A82900D80832084901EB3F
:1020E0008201016606498031416602F01F018B4082
:1020F000836610BD0854025800580258F0FBFDBF1B
:10210000000802400279521E072A31D8194B016893
:1021100099421BD0174B1433994217D0154B2833D3
:10212000994213D0134B3C3399420FD0114B50338B
:1021300099420BD00F4B6433994207D00D4B783343
:10214000994203D00B4B8C33994207D10A4901EBDA
:102150008201C16608494031016706E0074901EB89
:102160008201C16605494031016701219140416703
:1021700070470000085402580059025800090240F4
:10218000014610B500208B694FF0C0748A6A002B9D
:102190000ED0B3F5005F1AD062B3012A2AD0022A0A
:1021A00028D0032A03D1C96AC90100D5012010BD76
:1021B0001AB1012A06D0022AF9D1C96AC901F6D595
:1021C000012010BDC96AA142FBD1012010BD52B14E
:1021D000012A0AD0022A06D0032AF7D1C96AA142ED
:1021E000F4D1012010BD012010BDC96AC901FBD581
:1021F000012010BD012010BD2DE9F04F856D8A4EE4
:10220000894FDFF824C2A836DFF81C82DFF8189265
:102210000CF1180CDFF810A208F13008DFF808B252
:1022200009F1480904680AF1600A0BF1780BBC4215
:102230006DD064456BD0444569D04C4567D054455A
:1022400065D05C4563D0DFF8E0E10EF1900E744597
:102250005DD0B4425BD0DFF8D4E1744557D0DFF8ED
:10226000CCE10EF1180E744551D0DFF8C0E10EF14B
:10227000300E74454BD0DFF8B4E10EF1480E7445D2
:1022800045D0DFF8A8E10EF1600E74453FD0DFF8CD
:102290009CE10EF1780E744539D0DFF890E10EF133
:1022A000900E744533D0DFF884E10EF1A80E74452A
:1022B0002DD0DFF87CE1744529D0DFF874E10EF110
:1022C000140E744523D0DFF868E10EF1280E744532
:1022D0001DD0DFF85CE10EF13C0E744517D0DFF83D
:1022E00050E10EF1500E744511D0DFF844E10EF1CB
:1022F000640E74450BD0DFF838E10EF1780E7445AA
:1023000005D0DFF82CE10EF18C0E744509D1D0E92F
:1023100019E4CEF80440C46E1CB1D0E91CE4CEF838
:1023200004400468BC422ED064452CD044452AD0D9
:102330004C4528D0544526D05C4524D03A4F9037A0
:10234000BC4220D0B4421ED0384EB4421BD0374ECF
:102350001836B44217D0354E3036B44213D0334E0F
:102360004836B4420FD0314E6036B4420BD02F4EB7
:102370007836B44207D02D4E9036B44203D02B4E5F
:10238000A836B4421BD190F85C4004F01F063F24ED
:10239000B440AC600468256825F480252560046895
:1023A00063608368402B05D0036899600068C26051
:1023B000BDE8F08F03689A600068C160F8E71C4EC2
:1023C000B4421BD01A4E1436B44217D0184E2836D9
:1023D000B44213D0164E3C36B4420FD0144E503691
:1023E000B4420BD0124E6436B44207D0104E783649
:1023F000B44203D00E4E8C36B442D9D190F85C4032
:1024000004F01F060124B4406C60046863608368B4
:10241000402B04D0036899600068C260C8E7036875
:102420009A600068C160C3E71000024010040240D7
:1024300008540258704700008CB0002008900990A2
:102440000A900B9004900590069007904FF47A78CC
:10245000334D06AF334EA5F17C043078022802D00C
:10246000012840D058E0DFF8C0900322606F434657
:1024700049460DF0B7FB39EA000903D02BA009F05B
:10248000F3FF49E06888A0F5A061DD3902D0B0F51E
:10249000BC6F41D1A06E64210DF0DCFC10BB07F0D5
:1024A000DDFB8DED080B8DED0A1BBDEEC00B10EEB4
:1024B000100ABDEEC10B02B210EE100A01B268465E
:1024C00000F04CF99DE80F00CDE90623CDE90401A9
:1024D00004A8FFF729FD3846FFF726FD184801211B
:1024E00002F051FF18E0E06E41460DF0B3FC98B9E0
:1024F0001448B0F92420B0F92210684600F02EF9F3
:102500009DE80F00CDE90623CDE9040104A8FFF7FB
:102510000BFD3846FFF708FD01200DF0D9FA9CE7C6
:10252000940000240C0000243A008000D7D4B6AFF9
:10253000B5BCBABDCCF5BCFEB2BBC2FAD7E3000055
:1025400000040258FA03002408B57B4D4FF400073D
:10255000784EA5F17C04002203212369A06F0DF0C1
:1025600041FBC1070CD0606F39460DF0BFFA7348CC
:10257000012102F008FF4FF47A700DF0A9FAD5E0BE
:1025800081077BD5688840F2DE529042A0F2DE518E
:1025900076D006DCA0F5A060DC3805D00128EED1AD
:1025A0001BE00229EBD19FE065A1304610F01CF939
:1025B00068882880A88868800FF060FE61A000907D
:1025C0006A8862A3606963A106F0D8FC0FF076FE0A
:1025D000606F39460DF0DCFAA8E0A888A0F5A0608D
:1025E000DC3804D0022819D00428C8D12BE0606F51
:1025F00039460DF07BFA68882880A888688007F043
:10260000DFFC0FF03BFE4FA000906A884FA360698B
:1026100050A106F0B3FC0FF051FE87E0606F394621
:102620000DF064FA68882880A88868800FF026FE7C
:1026300044A000906A8845A3606946A106F09EFC0C
:102640000FF03CFE72E0606F39460DF04FFA68887B
:102650002880A888688007F0B3FC39A1304610F0C4
:10266000C3F80FF00BFE37A000906A8837A36069AB
:1026700038A106F083FC0FF021FE57E04BE0FFE7A6
:10268000A988A1F5A062DC3A50D0012A02D0042A20
:102690004CD114E02880698007F092FC28A13046D4
:1026A00010F0A2F80FF0EAFD26A000906A8827A398
:1026B000606928A106F062FC0FF000FE36E0288079
:1026C000698007F07DFC1EA1304610F08DF80FF0F8
:1026D000D5FD1CA000906A881CA360691DA106F0AE
:1026E0004DFC0FF0EBFD21E0606F39460DF0FEF977
:1026F00068882880A888688007F062FC0FF0BEFD1B
:1027000010A000906A8811A3606912A106F036FC3F
:102710000FF0D4FD0AE0400704D5606F39460DF094
:10272000E5F903E0606F39460DF032FA01200DF053
:10273000CFF910E72C0E0124940000240004025865
:102740002C00000074537461747573007461736BB2
:102750000000000025642573257300002DE9F74F64
:102760008B4692462DED048B84B04FF00008CDF8D7
:102770000080CDF80480CDF80880CDF80C804FF4AF
:102780004875DFF898916E42654F99F8000002286D
:1027900050D19FED648AF0EE481ADFED638AB0EE07
:1027A000681A9FED629AF0EE490ADFED619A584689
:1027B000B0EE690A0FF0D8F8BDEEC00A10EE104A6C
:1027C000F0EE481AB0EE681AF0EE490AB0EE690A67
:1027D00050460FF0C9F8BDEEC00A10EE100A404294
:1027E00004F11E013C2901D8002406E0AC4201DDC1
:1027F0002C4602E0B44200DA344600F11E013C29C6
:1028000001D8002006E0A84201DD284602E0B042DF
:1028100000DA304600B202210CF014F8386800905B
:102820007868019020B201210CF00CF83868029011
:102830007868039099F80000012801D090B363E014
:102840009FED3C8ADFED3C8A9FED3C9ADFED3C9AA0
:10285000F0EE481AB0EE681AF0EE490AB0EE690AD6
:1028600058460FF081F8BDEEC00A10EE100A44423F
:102870005046F0EE481AB0EE681AF0EE490AB0EE93
:10288000690A0FF071F8BDEEC00A10EE100A40425E
:1028900004F13101632901D2002407E0AC4202DBDC
:1028A0002C4603E020E0B44200DC344600F1310164
:1028B000632901D2002006E0A84201DB284602E09D
:1028C000B04200DC304600B202210BF0BBFF38689A
:1028D00000907868019020B201210BF0B3FF3868B6
:1028E0000290786803900FE0022140460BF0AAFFA7
:1028F0003868009078680190012140460BF0A2FFF3
:102900003868029078680390102208986946FDF7AD
:10291000BAFD04B0BDEC048BBDE8FE8F0C000024B2
:102920000F00002400003E4300003EC30000164498
:10293000000016C400806D4400806DC4000048444F
:10294000000048C41CB500260096751E374CDFF801
:10295000E080384F002201A9BB68786D0DF0C2F904
:1029600020B134487C30408810B35BE0BDF80410DF
:10297000D1B16089AF22DFF8C090504309EB8000ED
:102980000FF098FA6089AF214843BDF8041009EBB5
:102990008000FDF793FD6089401C80B260816188F2
:1029A00088423FD366813DE024A009F05DFD39E017
:1029B000387820B101280BD002282CD032E022A098
:1029C00009F052FD786F02210DF090F8BD6029E00A
:1029D000786F0DF0ACF8000724D598F800000528B2
:1029E00010D81DA009F040FD01200090B86D0A2309
:1029F000002269460DF0F6F998F80000401C88F8AE
:102A000000000FE019A009F02FFD786F08210DF0EC
:102A10006DF8BD6006E018A009F026FD786F402132
:102A20000DF064F801200DF053F893E7B600002490
:102A3000700100241800002468140024BDE2B3FDD6
:102A4000D7E8C8FB0D0A00003447C4A3BFE9C9CFCB
:102A5000B5E7CAA7B0DC000048545450BCF8C8A879
:102A6000C7EBC7F3CAA7B0DC0D0A0000BCF8C8A8C2
:102A7000CAA7B0DC00000000BDD3CADC4D515454DD
:102A8000D0C5CFA2CAA7B0DC0000000008B5134D26
:102A90000027134E4FF0FF38124C00224346694680
:102AA000286D0DF01FF9A8B9E08840F27711BDF844
:102AB0000020484306EB80010B4805F003FBE0884B
:102AC000401C80B2E0802188884200D3E7806420E7
:102AD0000CF0FEFF01200CF0FBFFDEE718000024E5
:102AE000AC440024B60000241C4200242DE9FC4123
:102AF00007460D46144618460D4972220CF0D0FFC9
:102B000006463B46CDE900540AA231460BA00CF024
:102B100079FE3046FDF7EFFC81B230460FF072FAD5
:102B200002B0304602497522BDE8F0410CF0B6BF54
:102B30009C39010825732573257300007B224E61A3
:102B40006D65223A2200222C2266756E223A2200FE
:102B5000222C22536F75726365223A007D000000BB
:102B600072B6FEE70849097800290AD00649C0F381
:102B7000C622C0F302208039895CC14001F0010007
:102B80007047002070470000800400202DE9F041CC
:102B90000E4E06F11807B56900F0C0F90446AC42C4
:102BA0000BD20B480121FDF7F5FB30B93069401C11
:102BB000306107480021FDF7EDFB21463846FDF75F
:102BC000F1FB8542E7D12046BDE8F081800400207A
:102BD000B90300242DE9FC4706460D461446002D96
:102BE00001D0802C02D90020BDE8FC873046FFF7D9
:102BF000B9FF48B1FFF7CAFF0746B0B2EFF305814E
:102C000021B14FF4002602E00120EDE70026064343
:102C1000CCB1082C4FF000084FF4E0291AD8CDF8B9
:102C20000080CDF80480224629466846FDF72BFC3B
:102C300009EA044030433946DDE9002340F04070A2
:102C400000F04EF8D0E7002339461A46304600F02F
:102C500047F8C9E72148FDF78BFB09EA00492868D6
:102C60000090686801900835083C46EA0906394634
:102C7000DDE9002346F0807000F032F820B14FF615
:102C8000017049EA00060FE00020ADE728680090D7
:102C9000686801900835083C3946DDE90023304674
:102CA00000F01EF8761CB0B1082CEFD8CDF80080EB
:102CB000CDF80480224629466846FDF7E4FB26F459
:102CC0007F4040EA04203946DDE9002340F00070EF
:102CD00000F006F888E7002086E700008104002065
:102CE0002DE9FF5F81468A46934607254FF08050C5
:102CF00000EADA06400000EA9B074100039801EA77
:102D000050082248FDF73DFB214900F03F0201EB4E
:102D1000021481094FF4700000EA015049EA0001F1
:102D20003143394341EA080141F0406104F10C00AC
:102D3000FDF740FB41011FD580F0806080F000412D
:102D400001F000402AF00042024322602BF00042D2
:102D500002436260039A22F000420243A26004F13F
:102D60000C00FDF738FB50B10848001DFDF709FBCA
:102D7000012004B0BDE8F09F6D1E002DC1D10348B5
:102D80000830FDF7FEFA0020F3E70000840400207D
:102D9000000000202DE9F043FF2901D2FF2A02D3D1
:102DA0000020BDE8F08300260024DFF83C804FF0CF
:102DB000010909FA04F3034210D00B460CE006EBBC
:102DC000D30503F0070C18F8057009FA0CFC47EA64
:102DD0000C0708F805705B1C9342F0D92036641C80
:102DE000042CE6D30120DCE7000400202DE9F041AB
:102DF00007460E46374C002525708021A4F180003F
:102E0000FDF75CFB344818210BF000FD334901222B
:102E1000236A8B4203D021626080E26108E061880E
:102E2000814202D06080E26102E0E069401CE06122
:102E3000E069012833D00020294B03EB0011CA6858
:102E40005FEA421C02D522F04062CA60401C402862
:102E5000F3D3E06901282CD000F06CF88046B8F17B
:102E6000000F19D0FE2238460021FFF793FFEF2212
:102E70000F201146FFF78EFFFE2204201146FFF7B8
:102E800089FFFFF783FE014616486369E269FFF791
:102E900027FF0EB100F02AF84046BDE8F0816570CA
:102EA0006560A560E5604FF480610D48FDF706FBA5
:102EB000CFE700F03FF880465FEA080002D000F05C
:102EC00033F800E000206061A561256106480570C7
:102ED000C5E7000080040020B84301086B27A5E186
:102EE0000000002000FF0003B903002410B50948CA
:102EF0000178002901D0012010BD01210170FFF7E8
:102F000045FE0146044800231A46FFF7E9FE01206A
:102F100010BD00008004002001FF0003014840684C
:102F200070470000001000E0014800687047000092
:102F3000E00000240548016841F080710160044808
:102F4000016841F00101016001207047FCED00E0E3
:102F5000001000E0014801F0CBBD00009C060024F9
:102F600030B5426B036853F8844F4FF6FC718C43C5
:102F700044EA82041C60036853F8844F058F24F4EC
:102F80007F0444EA05441C60836B1A44036853F8C9
:102F9000884F8C4344EA82041C60036853F8884FCE
:102FA000858F24F4FE0444EA05441C60C36B02EBE5
:102FB0004302036853F8A04F8C4344EA82041C6028
:102FC000036853F8A04FB0F8405024F4FE0444EADC
:102FD00005441C60D0E9103403FB0422036853F855
:102FE000B04F8C4344EA82041C60036853F8B04F2E
:102FF000B0F8485024F4FE0444EA05441C60D0E9CB
:10300000123403FB0422036853F8AC4F8C4344EAA8
:1030100082041C60D0E9143403FB0422036853F8D3
:10302000F04F8C4344EA82041C60036853F8F04F6D
:10303000B0F8585024F47C1444EA05441C60836DB5
:1030400002EB4303026852F8C04F8C4344EA830109
:103050001160016851F8C02FB0F85C3022F47C1286
:1030600042EA03420A60016851F8C02F90F86030CC
:1030700022F07C5242EA03620A60416B224A02EB70
:103080008101C166826B01EB82020267C36B02EBB6
:10309000C3024267D0E91034634302EB83028267C4
:1030A000D0E91234634302EB8302C267D0E91434DF
:1030B000634302EB8302C0F88020836D02EBC302FE
:1030C000C0F88420C46D836E5C4302EB8402C0F8B8
:1030D0008820046E5C4302EB8402C0F890200B4B06
:1030E0009A4208D99830416841F02001416003219B
:1030F0000170012030BD002200E004C1D0F8903002
:103100008B42FAD8002030BD00AC0040FCD3004018
:10311000F0B5D1E901650C692C430D68002E19D07A
:1031200045F080452C4391F82070D1E90665354380
:103130004E6946EA07663543CE683543D0F8846069
:10314000806E584306EB80031C605D6008330020EE
:103150000C4E0FE044EA8544E5E71418155CE77867
:1031600045EA0765A77864783F0447EA04242543C5
:1031700020C3001DCC6806EB144424788442ECD8AC
:10318000F0BD0000303C010808B500260096214C37
:10319000214D002269466B68286E0CF0A3FDA8B192
:1031A0001EA009F061F9224804F0C0FA686F1021EE
:1031B0000CF09CFC686F20210CF098FCA86F042197
:1031C0000CF0E6FC01200CF083FCE2E70098E0B193
:1031D0006089184F00EBC00101EB001007EBC00045
:1031E00007F0F2F8608900EBC00101EB0010C82184
:1031F00007EBC000FDF762F96089401C80B2608176
:1032000061888842DED36681DCE70BA009F02CF9E7
:10321000D8E70000A800002418000024BDD3CADCB1
:1032200052544BD0C5CFA2CAA7B0DC0D0A00000093
:103230001C14002464070024BDE2B3FDD7E8C8FBDA
:103240000D0A000010B504462DED028B90B08DEDF7
:10325000080B8DED0A1B184802AB04AA69460CF056
:10326000A3FA9DED000B8DED060B9DED040B9FED7C
:10327000131B80EE012B9FED130B22EE008BB0EEA3
:10328000480B09F08DFF9DED001B20EE010B8DED2D
:103290000C0BB0EE480B09F073FC9DED001B20EE0B
:1032A000010B8DED0E0B2822204606A9FDF7EBF849
:1032B00010B0BDEC028B10BD3011012400000000E5
:1032C00000806640F1D4C853FB2109402DE9F84F36
:1032D000044602F06DF800905CB194F835000228C5
:1032E00009D080206065002084F834000120BDE80A
:1032F000F88F0120FBE7D14ED04FD0491836DFF8C8
:103300003C833037DFF83493DFF830A308F1480806
:10331000DFF828B309F1600920680AF1780A0BF197
:10332000900B88422ED0B0422CD0B8422AD04045D3
:1033300028D0484526D0504524D0584522D0BF4AF1
:10334000A83290421ED0BE4A90421BD0BC4A1832CE
:10335000904217D0BA4A3032904213D0B84A48321D
:1033600090420FD0B64A603290420BD0B44A7832C5
:10337000904207D0B24A9032904203D0B04AA8326D
:1033800090420AD1026822F01E020260206842695F
:1033900022F080024261256804E0026822F00E02F9
:1033A00002602568206888424DD0B0424BD0B842B8
:1033B00049D0404547D0484545D0504543D0584571
:1033C00041D09E4AA83290423DD09D4A90423AD088
:1033D0009B4A1832904236D0994A3032904232D0CD
:1033E000974A483290422ED0954A603290422AD075
:1033F000934A7832904226D0914A9032904222D01D
:103400008F4AA83290421ED08E4A90421BD08D4ADD
:103410001432904217D08B4A2832904213D0894AF6
:103420003C3290420FD0874A503290420BD0854AAE
:103430006432904207D0834A7832904203D0814A66
:103440008C32904204D1206E026822F480720260B5
:103450007A49206888422ED0B0422CD0B8422AD077
:10346000404528D0484526D0504524D0584522D044
:103470007249A83188421ED0714988421BD07049D8
:103480001831884217D06E493031884213D06C49C8
:10349000483188420FD06A49603188420BD0684970
:1034A0007831884207D066499031884203D0644918
:1034B000A831884204D1016821F00101016013E0C4
:1034C000016821F0010101600EE001F071FF009937
:1034D000401A052808D92020343420620320607067
:1034E00000202070012002E72868C007EDD1534A70
:1034F0000121206890422ED0B0422CD0B8422AD070
:10350000404528D0484526D0504524D0584522D0A3
:103510004A4BA83398421ED0494B98421BD0484B87
:103520001833984217D0464B3033984213D0444B4F
:10353000483398420FD0424B603398420BD0404BF7
:103540007833984207D03E4B9033984203D03C4B9F
:10355000A833984208D1A06D94F85C3003F01F05A1
:103560003F23AB40836007E0A06D94F85C3003F02C
:103570001F0301FA03F34360206890424DD0B0422C
:103580004BD0B84249D0404547D0484545D050453A
:1035900043D0584541D0294AA83290423DD0284ACC
:1035A00090423AD0264A1832904236D0244A3032DD
:1035B000904232D0224A483290422ED0204A603285
:1035C00090422AD01E4A7832904226D01C4A90322D
:1035D000904222D01A4AA83290421ED0194A9042F4
:1035E0001BD0184A1432904217D0164A2832904203
:1035F00013D0144A3C3290420FD0124A50329042BB
:103600000BD0104A6432904207D00E4A7832904272
:1036100003D00C4A8C3290420BD1D4E9192050606F
:10362000E06E30B1026822F480720260D4E91C209E
:103630005060343461700020207058E61000024061
:1036400010040240085402582DE9F05F002808D009
:1036500090F83510022906D0802141650120BDE88F
:10366000F09F0120FBE7A14AA04BA04C18329F4DD0
:1036700030339E4E4834DFF874B26035DFF870C2E4
:103680007836DFF86C82DFF868920CF1300CDFF8E6
:1036900060A208F16008016809F17809944F0AF105
:1036A000900A594531D091422FD099422DD0A14254
:1036B0002BD0A94229D0B14227D0DFF830E20EF159
:1036C000900E714521D0DFF824E20EF1A80E71456D
:1036D0001BD0DFF81CE2AEF1180E714515D0B942CF
:1036E00013D0DFF80CE20EF1180E71450DD06145D4
:1036F0000BD0DFF8FCE10EF1480E714505D04145D5
:1037000003D0494501D0514537D14FF0040E80F820
:1037100035E0594527D0914225D0994223D0A14286
:1037200021D0A9421FD0B1421DD0704890308142B3
:1037300019D06E48A830814215D06D4818388142A2
:1037400011D0B9420FD06A48183081420BD0614580
:1037500009D067484830814205D0414503D04945EA
:1037600001D0514504D1086820F001000860BAE09A
:10377000086820F001000860B5E0D1F800E02EF004
:103780000E0EC1F800E00168DE46594531D0914285
:103790002FD099422DD0A1422BD0A94229D0B1429D
:1037A00027D0DFF848B10BF1900B594521D0DFF855
:1037B0003CB10BF1A80B59451BD0DFF834B1ABF18C
:1037C000180B594515D0B94213D0DFF824B10BF1CD
:1037D000180B59450DD061450BD0DFF814B10BF132
:1037E000480B594505D0414503D0494501D05145C5
:1037F00006D1D1F800B02BF0010BC1F800B005E004
:10380000D1F800B02BF0010BC1F800B001684FF007
:10381000010B714546D0914244D0994242D0A14219
:1038200040D0A9423ED0B1423CD0304A9032914281
:1038300038D02E4AA832914234D02D4A183A9142BB
:1038400030D0B9422ED02A4A183291422AD061454E
:1038500028D0274A4832914224D0414522D04945B8
:1038600020D051451ED0234A91421BD0214A143208
:10387000914217D01F4A2832914213D01D4A3C3240
:1038800091420FD01B4A503291420BD0194A6432F8
:10389000914207D0174A7832914203D0154A8C32B0
:1038A000914218D1016E0A6822F480720A60816D1B
:1038B00090F85C2002F01F020BFA02F24A60D0E995
:1038C00019215160C16E31B10A6822F480720A6018
:1038D000D0E91C21516080F835B0002180F8341007
:1038E000016D01B188470020B9E6000010000240D8
:1038F0002804024008540258406D70472DE9FF5FCC
:103900000446002001904FF41651FD480068B0FBBA
:10391000F1F00090A56D2E682968FA4FDFF8E4B346
:10392000DFF8E083DFF8DC930BF1180BDFF8D4A3AA
:1039300008F13008206809F148090AF1600AB84224
:103940003BD05A46904238D0404536D0484534D0D6
:10395000504532D0EB4A783290422ED0E94A90322C
:1039600090422AD0E74AA832904226D0E64A9042B6
:1039700023D0E54A183290421FD0E34B30339842AF
:103980001BD0E14B4833984217D0DFF87CC30CF1D1
:10399000600C604511D0DFF870C30CF1780C604505
:1039A0000BD0DFF864C30CF1900C604505D0DFF854
:1039B00058E30EF1A80E70457ED194F85C100823F0
:1039C00001F01F0103FA01F232424BD0B84232D06B
:1039D000584530D040452ED048452CD050452AD0AF
:1039E000C8497831884226D0C6499031884222D0D1
:1039F000C449A83188421ED0C34988421BD0C2495D
:103A00001831884217D0C0493031884213D0BE499E
:103A1000483188420FD0BC49603188420BD0BA4946
:103A20007831884207D0B8499031884203D0B649EE
:103A3000A831884203D1016801F0040102E0016865
:103A400001F0080171B1016821F00401016094F8EE
:103A50005C0000F01F0003FA00F2AA60606D40F005
:103A60000100606594F85C00012100F01F008140B6
:103A7000314240D02068B84234D0584532D0404519
:103A800030D048452ED050452CD09E4A78329042B6
:103A900028D09C4A9032904224D09A4AA832904230
:103AA00020D0994A90421DD0974A1832904219D09E
:103AB000954A3032904200E0D2E113D0924A483227
:103AC00090420FD0904A603290420BD08E4A7832AA
:103AD000904207D08C4A9032904203D08A4AA83252
:103AE00090427DD1406910F0800F04D0A960606DD4
:103AF00040F00200606594F85C00042100F01F00B3
:103B0000814031423ED02068B84232D0584530D052
:103B100040452ED048452CD050452AD0794A78329D
:103B2000904226D0774A9032904222D0754AA832ED
:103B300090421ED0744A90421BD0734A1832904271
:103B400017D0714A3032904213D06F4A48329042B7
:103B50000FD06D4A603290420BD06B4A783290425F
:103B600007D0694A9032904203D0674AA832904207
:103B70004ED1006810F0020F04D0A960606D40F0D3
:103B80000400606594F85C00102100F01F00814083
:103B9000314260D02068B84234D0584532D04045D8
:103BA00030D048452ED050452CD0564A78329042DD
:103BB00028D0544A9032904224D0524AA83290429F
:103BC00020D0514A90421DD04F4A1832904219D00D
:103BD0004D4A3032904215D04B4A4832904200E074
:103BE00014E00FD0484A603290420BD0464A7832F7
:103BF000904207D0444A9032904203D0424AA832C1
:103C0000904207D1006800F0080006E0006872E703
:103C10000068B7E7006800F0040058B1A9602068A8
:103C2000016849030CD50068000304D4216C09B174
:103C3000204688470FE0A16C69B1204688470AE01A
:103C40000168C90503D4016821F008010160216CF5
:103C500009B12046884794F85C00202100F01F003D
:103C6000814031427BD02068B84232D0584530D0B4
:103C700040452ED048452CD050452AD0214A783294
:103C8000904226D01F4A9032904222D01D4AA8323C
:103C900090421ED01C4A90421BD01B4A18329042C0
:103CA00017D0194A3032904213D0174A4832904206
:103CB0000FD0154A603290420BD0134A78329042AE
:103CC00007D0114A9032904203D00F4AA832904256
:103CD00003D1006800F0100002E0006800F002006C
:103CE000E8B3A96094F83500042812D02068016870
:103CF00049033DD50068000335D4616C79B305E014
:103D0000E0000024100002401004024020468847D2
:103D10003FE02068016821F01601016020684169D8
:103D200021F080014161206C08B9A06C20B12068AD
:103D3000016821F00801016094F85C0000F01F01A7
:103D40003F208840A860012084F83500002084F8D6
:103D50003400216D002974D004B0204600E018E042
:103D6000BDE8F05F0847E16B99B12046884710E055
:103D70000168C90509D4016821F010010160012022
:103D800084F83500002084F83400E16B09B1204646
:103D90008847606D002854D0606DC00758D004205B
:103DA00084F835002068B84231D058452FD04045BE
:103DB0002DD048452BD0504529D0B749884226D030
:103DC000B5491831884222D0B349303188421ED0DB
:103DD000B24988421BD0B1491831884217D0AF4947
:103DE0003031884213D0AD49483188420FD0AB49B9
:103DF000603188420BD0A9497831884207D0A74961
:103E00009031884203D0A549A831884204D1016885
:103E100021F00101016003E0016821F0010101606E
:103E200021680198009A401C0190904202D80868CD
:103E3000C007F6D10868C00704D0032084F8350015
:103E400003E087E0012084F83500002084F8340086
:103E5000E16C00297ED004B02046BDE8F05F084741
:103E60008F4EB0421BD08E4E1436B04217D08C4EBF
:103E70002836B04213D08A4E3C36B0420FD0884E1E
:103E80005036B0420BD0864E6436B04207D0844ED6
:103E90007836B04203D0824E8C36B0425AD1066892
:103EA0004FF0040E94F85CB00BF01F0B0EFA0BFEF3
:103EB0001EEA010FCDF80CE05ED05FEA467E5BD5CE
:103EC00003986860300411D5F00307D4A16C002971
:103ED00040D004B02046BDE8F05F0847216C0029BF
:103EE00038D004B02046BDE8F05F0847B0063BD4A8
:103EF0002068B8422DD068496039884229D04045B1
:103F000027D0484525D0504523D06349884220D04A
:103F10006149183188421CD05F493031884218D03D
:103F20005E49884215D0904213D05C4930318842B6
:103F30000FD098420DD059496031884209D0574975
:103F40007831884205D0604503D05449A831884271
:103F500006D100E07CE0016821F00801016003E087
:103F6000016821F004010160216C002970D004B0C7
:103F70002046BDE8F05F08474FF0020E0EFA0BFE38
:103F80001EEA010FCDF808E063D05FEA867E60D5B7
:103F900002986860300411D5F00307D4616C0029E1
:103FA00078D004B02046BDE8F05F0847E16B0029F7
:103FB00070D004B02046BDE8F05F0847B0063FD49B
:103FC0002068B8422DD034496039884229D0404514
:103FD00027D0484525D0504523D02F49884220D0AE
:103FE0002D49183188421CD02B493031884218D0D5
:103FF0002A49884215D0904213D02849303188424E
:104000000FD098420DD025496031884209D023490C
:104010007831884205D0604503D02049A8318842D4
:1040200004D1016821F01401016003E0016821F06E
:104030000A010160012084F83500002084F8340072
:10404000E16B002926D004B02046BDE8F05F0847A8
:1040500020E0082202FA0BF20A421BD0310719D5E0
:10406000016821F00E01016094F85C0000F01F016E
:10407000012000FA01F16960606584F835000020D4
:1040800084F83400E16C002904D004B02046BDE877
:10409000F05F0847BDE8FF9F88000240100402401F
:1040A000085402582DE9F05F044601F081F90646F4
:1040B000002C7DD0F44F0222DFF8CC830025DFF8FE
:1040C000C893DFF8C4A308F13008DFF8BCB309F1E6
:1040D000480920680AF1600A0BF1780BB84232D027
:1040E000E949183188422ED040452CD048452AD085
:1040F000504528D0584526D0E3499031884222D0F7
:10410000E149A83188421ED0E04988421BD0DF49EE
:104110001831884217D0DD493031884213D0DB494D
:10412000483188420FD0D949603188420BD0D749F5
:104130007831884207D0D5499031884203D0D3499D
:10414000A83188427ED184F8352084F83450B842B2
:1041500034D0CD491831884230D040452ED0484522
:104160002CD050452AD0584528D0C7499031884294
:1041700024D0C549A831884220D0C44988421DD0E6
:10418000C2491831884219D0C0493031884215D00F
:10419000BE494831884211D0BC49603188420DD0B7
:1041A000BA497831884209D0B8499031884200E054
:1041B00009E003D0B549A831884207D1016821F050
:1041C0000101016013E00120BDE8F09F016821F0CA
:1041D000010101600BE001F0EBF8801B052806D916
:1041E00020206065032084F835000120ECE720687A
:1041F0000068C007EFD122681168A5480140D4E9E2
:1042000002031843D4E9043633431843A36918431F
:10421000E3691843236A18430843616A042903D1F8
:10422000D4E90B13194308439A4909686FF30F0146
:10423000B1F1005F11D36168A1F12903052B0AD9FF
:10424000163B00E02EE0032B05D9083B012B02D9D9
:104250004F39032901D840F480101060206840696C
:1042600020F00701606A40EA010604280DD1A06A27
:104270000643E06A48B12046FDF782FF28B140209E
:104280006065012084F835009EE72068466120467D
:10429000FDF788FE94F85C1001F01F023F21914069
:1042A000816066E07C4988421BD07B4B1433984286
:1042B00017D0794B2833984213D0774B3C33984230
:1042C0000FD0754B503398420BD0734B64339842E8
:1042D00007D0714B7833984203D06F4B8C339842A0
:1042E0007ED1884211D06C49143188420DD06A4980
:1042F0002831884209D068493C31884205D0664956
:104300005031884201D06449643184F8352084F802
:104310003450026861490A40A16840297ED0802952
:104320007DD00021E36841EAD301236941EAD3014A
:10433000636941EAD301A36941EAD301E36941EA30
:10434000D301236A41EA13111143016052492068E5
:10435000494208441421B0FBF1F08000E06520469A
:10436000FDF720FE94F85C1001F01F02012191403E
:1043700041602068B84256D043491831884252D033
:10438000404550D048454ED050454CD058454AD075
:104390003D499031884246D03B49A831884242D0BD
:1043A0003A4988423FD03949183188423BD0374991
:1043B0003031884237D035494831884233D033498B
:1043C000603188422FD03149783188422BD02F4933
:1043D0009031884227D02D49A831884223D000E06F
:1043E0002DE02D4988421ED02B49143188421AD025
:1043F00029492831884216D027493C31884212D0B9
:104400002549503188420ED02349643188420AD070
:1044100021497831884206D01F4901E00AE00BE0CB
:104420008C31884229D12046FDF71CFEA0688028E7
:104430000CD00CE0102175E74FF4804172E740206A
:104440006065032084F835000120BDE66560216EBB
:1044500020790860D4E9191048606068401E072878
:1044600008D82046FDF74EFEE06E0560D4E91C102A
:10447000486002E0E566256765676565012084F8A8
:1044800035000020A0E600001000024010040240A9
:104490003F8010FE0010005C085402580F00FEFF21
:1044A0002DE9F84F044600200090002C15D094F818
:1044B0003400012813D0012084F8340094F83550DA
:1044C0000020012D0DD04FF40061616584F83400A7
:1044D000012000900098BDE8F88F0120FBE7022042
:1044E000F9E7022584F835506065A54DA44EA44F28
:1044F0001835DFF88CC23036DFF884824837DFF8B1
:104500008092DFF87CA208F16008DFF874B209F14C
:10451000780920680AF1900A0BF1A80B60453BD09E
:10452000A84239D0B04237D0B84235D0404533D018
:10453000484531D050452FD058452DD0DFF844C2E2
:10454000604529D0DFF83CC20CF1180C604523D03F
:10455000DFF830C20CF1300C60451DD0DFF824C20A
:104560000CF1480C604517D0DFF818C20CF1600C54
:10457000604511D0DFF80CC20CF1780C60450BD00F
:10458000DFF800C20CF1900C604505D0DFF8F4C1F3
:104590000CF1A80C604506D1D0F800C02CF0010C3D
:1045A000C0F800C005E0D0F800C02CF0010CC0F845
:1045B00000C02046FDF720FE7149206888422CD0BB
:1045C000A8422AD0B04228D0B84226D0404524D0B4
:1045D000484522D0504520D058451ED0694A9042C7
:1045E0001BD0684A1832904217D0664A3032904247
:1045F00013D0644A483290420FD0624A60329042EF
:104600000BD0604A7832904207D05E4A9032904296
:1046100003D05C4AA83290420DD1026822F01E02FB
:1046200042F016020260206C90B12068026842F0ED
:10463000080202600CE0026822F00E0242F00A0258
:104640000260206C20B12068026842F0040202601F
:10465000206888424BD0A84249D0B04247D0B842E7
:1046600045D0404543D0484541D050453FD05845BE
:104670003DD0444A90423AD0424A1832904236D015
:10468000404A3032904232D03E4A483290422ED098
:104690003C4A603290422AD03A4A7832904226D040
:1046A000384A9032904222D0364AA83290421ED0E8
:1046B000354A90421BD0344A1432904217D0324AC5
:1046C0002832904213D0304A3C3290420FD02E4ACA
:1046D000503290420BD02C4A6432904207D02A4A82
:1046E0007832904203D0284A8C3290420DD1206E0D
:1046F0000268D20303D5026842F480720260E06E61
:1047000018B1026842F480720260206888422CD09E
:10471000A8422AD0B04228D0B84226D0404524D062
:10472000484522D0504520D058451ED015498842D2
:104730001BD014491831884217D0124930318842B1
:1047400013D01049483188420FD00E496031884259
:104750000BD00C497831884207D00A499031884201
:1047600003D00849A831884204D1016841F0010111
:104770000160AFE6016841F001010160AAE60000B6
:1047800010000240100402400854025810B590F87E
:104790009830012B08D0022B06D050F89C1F41F016
:1047A00002010160012010BD03689C6D0C4204D120
:1047B000DC6D44F00104DC6505E09C6D31EA040425
:1047C0001CD00324DC658B0504D5036853F8E04F47
:1047D00014431C604B0504D5036853F8E44F14439D
:1047E0001C600068426D084B0B401A434265074845
:1047F000026842EA91710160002010BDDC6D44F056
:104800000204DC65DFE70000FFFFCF3F14A8004093
:1048100070B5044694F89800022806D054F89C0F0E
:1048200040F008002060012070BD2068D0F8C03042
:1048300013F07C5F0AD0D0F8C4309B020DD554F839
:104840009C0F40F400702060012070BD54F89C0F54
:1048500040F020002060012070BDD0F8C400C0F3FB
:10486000044520462B46FEF753FC21680120A84052
:10487000C1F8D000C4F89400002070BD704710B596
:1048800090F89820012A08D0022A06D050F89C1FE0
:1048900041F002010160012010BDCA680B688BB1B4
:1048A000072A0B6943EA42732BD00C7A4A6942EA21
:1048B00084724968006F00EBC100036042604FF0F2
:1048C000000010BD072A10D00C7A4FEAC2624B6973
:1048D00043EA84730C8A42EA044243EA02034968C9
:1048E000C06E00EB81000360E9E70B8A4FF0605473
:1048F0008A6942EA0343CA6944EA022243EA02039C
:10490000EDE78A69D5E730B5039C90F89850012D02
:1049100006D050F89C1F41F004010160012030BD19
:104920000068090141EA820141EA43012143C0F8DC
:104930008010002030BD704770470000F0B50024A3
:1049400090F89850022D06D050F89C1F41F00801B5
:1049500001600120F0BD40294FF000460BD04129F5
:1049600036D0056D8D4260D850F89C1F41F0200173
:1049700001600120F0BD0568D5F8A07017F4FE0FA6
:1049800018D0D5F8A4707F061BD0D5F8A470FF010D
:1049900005D5D5F8A070B6EBD77F00D10124D5F8A6
:1049A000A450C5F305252C44456C466F654306EBC2
:1049B00085063FE050F89C1F41F020010160012076
:1049C000F0BD50F89C1F41F4807101600120F0BDE2
:1049D0000568D5F8B07017F4FE0F18D0D5F8B4708C
:1049E0007F061BD0D5F8B470FF0105D5D5F8B0709F
:1049F000B6EBD77F00D10124D5F8B450C5F3052517
:104A00002C44C56C866F654306EB850612E050F8B2
:104A10009C1F41F0200101600120F0BD50F89C1F57
:104A200041F4807101600120F0BD456DC66F4D43BA
:104A300006EB8506356805F0804555602DB3356871
:104A400025F060451560356805F0005595603568BE
:104A500005F000451561B588ADB2D561756805F4FE
:104A60007025D560756805F480155561756805F485
:104A7000001595617568C5F3066515627568083699
:104A8000ED0F55620025184F09E03568C5F38A45DA
:104A90001560D8E716F805C003F805C06D1CD2F8FC
:104AA0000CC007EB1C4C9CF800C0AC45F2D8402968
:104AB00009D041290BD0012220290CD200688A405C
:104AC000C0F898200DE00068C0F8A84009E0006830
:104AD000C0F8B84005E0006801F01F018A40C0F846
:104AE0009C200020F0BD0000303C01087047000011
:104AF0002DE9FE4F0446B64F38688007391D096816
:104B000000EA817002902068016D01F47041D0F8D4
:104B100054A00AEA010A016D01F00F01D0F854B067
:104B20000BEA010B016D01F0F001426D0A400192A8
:104B3000016D01F07151D0F8548008EA0108016D4F
:104B400001F06071426D0A400092416D056D4FF0B9
:104B50000009CE43F10509D4E943C90506D4B915C6
:104B60000165C7F800902046FFF7C0FF700510D41C
:104B7000E84340050DD42068D0F8DC20D0F8E410DC
:104B800011404FF480620265C7F80090204600F0A3
:104B9000DCFA029858B18F490298084021680865EC
:104BA0000298800F386002992046FFF767FEBAF13D
:104BB000000F0BD0216887480AEA000008654FEA19
:104BC0009A7038605146204600F0C1FABBF1000FE0
:104BD0000BD021687F480BEA000008654FEA9B7004
:104BE00038605946204600F07BFA019858B179495F
:104BF00001980840216808650198800F3860019984
:104C0000204600F083FA30050BD4E843000508D4B1
:104C100021684FF400600865C7F80090204600F056
:104C200097FAB00510D4E84380050DD42068D0F879
:104C3000D820D0F8E01011404FF400720265C7F898
:104C40000090204600F082FA30030BD4E8430003C2
:104C500008D421684FF400200865C7F8009020466A
:104C600000F03CFAF0030BD4E843C00308D42168F9
:104C70004FF480300865C7F80090204600F064FAD1
:104C800070030BD4E843400308D421684FF480201C
:104C90000865C7F80090204600F055FAB0030ED41E
:104CA000E84380030BD421684FF400300865C7F84F
:104CB0000090D4F89C0040F08000C4F89C0000985C
:104CC00058B1444900980840216808650098800F51
:104CD000386000992046FFF72FFEB8F1000F0DD085
:104CE00021683C4808EA000008654FEA987038607F
:104CF000D4F89C0040EA0800C4F89C0036492068BB
:104D000088425BD160688168890757D0016A01F0E9
:104D10000F02416A1140026A02F03002476A1740EE
:104D2000026A02F4C072D0F8248008EA0208026A1B
:104D300002F4FC42456A1540026A02F4F022466A17
:104D40001640D0F82490D0F820A019B10162204676
:104D500000F0F6F92FB1606807623946204600F08E
:104D6000F1F96FEA090040060ED46FEA0A00400626
:104D70000AD46068C16B090CC26B02F03F02402389
:104D80000362204600F0DDF9B8F1000F06D060683C
:104D9000C0F820804146204600F0D1F935B1606866
:104DA0000562D4F89C002843C4F89C0036B16068C2
:104DB0000662D4F89C003043C4F89C00D4F89C00F0
:104DC000002802D02046FFF7B6FDBDE8FE8F0000A8
:104DD00010A80040FFFFCF3F00A000402DE9F043A6
:104DE00093B004464C2295496846FBF74CFB6CB1E6
:104DF000934F2068B84202D100F5807060604FF494
:104E0000407994F89800002620B108E0012013B002
:104E1000BDE8F08384F89960204600F013F920681B
:104E2000816921F01001816100F0C2FA05464FF05E
:104E300003080DE000F0BCFA401B0A2808D954F81A
:104E40009C0F40F00100206004F8048C0120DEE794
:104E5000206880690007EDD42068816941F0010174
:104E6000816100F0A5FA05460DE000F0A1FA401BB3
:104E70000A2808D954F89C0F40F00100206004F87B
:104E8000048C0120C3E720688069C007EDD020684A
:104E9000816941F002018161207C012839D02068BC
:104EA000816941F040018161607C012837D0206830
:104EB000816921F480418161A07C012835D020687E
:104EC000816941F48051816120688169A26821F47F
:104ED0004071114381612068816921F0A4018161E1
:104EE0002068016921F010010161E068012822D0E9
:104EF00030B302282BD02068816941F080018161A4
:104F00002068016941F010010161E068032818D0B0
:104F100022E02068816921F040018161C4E72068B6
:104F2000816941F480418161C6E72068816921F48B
:104F300080518161C8E72068816941F00401816185
:104F40000AE02068816941F02001816104E0206865
:104F5000816941F020018161207E401E4106E069A7
:104F6000401E41EA0020216A491E0843A18A491EC9
:104F700040EA01402168C861A06848450FD1E16A54
:104F8000A06A491E401E40EA0121206B401E41EAF2
:104F90000011A08C401E41EA00402168C860206ECC
:104FA00028B1206850F8C01F626E11430160D4E937
:104FB0001701C842694609D0206850F8C82FA36E6F
:104FC00022F0070251F823301A430260206C48B1E6
:104FD000206850F8BC2F636C22F0070251F8233090
:104FE0001A430260A06C50B1206850F8BC2FE36CEB
:104FF00022F0700251F8233042EA03120260206D61
:1050000050B1206850F8BC2F636D22F4E06251F873
:10501000231042EA012101602068B84204D160688F
:10502000816821F00301816044F8946FA66001203B
:105030002071943C2046FDF793FFE8E6403C0108D0
:1050400000A0004010B5B8B00446142132A8FBF708
:1050500035FAC02102A8FBF731FA1D4920688842C1
:1050600034D100204FF40041CDE9021048031E90D6
:1050700002A800F097FC08B1FDF772FD1548016821
:1050800041F480710160006800F480700190114863
:105090000C38016841F008010160006800F0080068
:1050A00001900320329002203390002034903590FC
:1050B0000920369032A9084800F04CF800220A2155
:1050C000132000F03FFA132000F02EFA38B010BD84
:1050D00000A00040EC440258000C02587047000049
:1050E00010B50446C9070DD0074B4021204603F5F3
:1050F0002872FFF723FC00222046BDE81040012162
:10510000FFF744BB10BD00009C040024704790F8DA
:105110009810012906D050F89C1F41F0040101604D
:1051200001207047022180F8981001688A6922F0F6
:1051300001028A610021C0F89C100020704770476E
:1051400070477047704770477047704770477047A7
:10515000704700002DE9F84F00227B4D03264FF0E9
:1051600001080F274FF0B04CE6E008FA02F31C40AC
:105170009A46002C7ED00B7903F00303012B01D05B
:10518000022B1BD1D0F80890530006FA03FB29EA42
:105190000B09D1F80CB00BFA03FB4BEA090BC0F872
:1051A00008B0436823EA0A0391F80490C9F3001990
:1051B00009FA02F949EA0309C0F804900B79DB43C4
:1051C0009B070ED0D0F80C90530006FA03FA29EA98
:1051D0000A09D1F808A00AFA03FA4AEA090AC0F84B
:1051E0000CA00B7903F00303022B14D1D30800EBBE
:1051F0008303D3F820A04FEA42794FEAD96907FA2E
:1052000009FB2AEA0B0AD1F810B00BFA09FB4BEAAA
:105210000A0BC3F820B0D0F80090530006FA03FA46
:1052200029EA0A0991F804A00AF0030A0AFA03FA23
:105230004AEA090AC0F800A04B6813F4403F7AD04C
:10524000424BD3F8009049F00209C3F800901B6864
:1052500003F00203009322F0030909F1B049D9F8E1
:1052600008B493074FEA137A07FA0AF32BEA030B01
:10527000374B00E05FE0984201D100232DE0354B31
:10528000984201D1012328E0334B984201D10223F7
:1052900023E0324B984201D103231EE0304B984269
:1052A00001D1042319E02F4B984201D1052314E0CA
:1052B0002D4B984201D106230FE02C4B984201D18F
:1052C00007230AE02A4B984201D1082305E0294B25
:1052D000984201D1092300E00A2303FA0AF343EAC2
:1052E0000B03C9F80834DCF80030A343D1F804906C
:1052F0005FEAC92900D52343CCF80030DCF804303C
:10530000A343D1F804905FEA892900D52343CCF860
:1053100004306B68A343D1F804905FEA893900D563
:1053200023436B602B68A343D1F804905FEAC9392B
:1053300000D523432B60521C0C6834FA02F37FF42F
:1053400014AFBDE8F88F000080000058F444025804
:10535000000002580004025800080258000C0258CD
:10536000001002580014025800180258001C02587D
:1053700000200258002402580069084201D0012090
:10538000704700207047426921EA02030A4043EA5D
:10539000024181617047002A01D081617047090490
:1053A0008161704701480068000C70470010005C84
:1053B00010B50AF04BFC022817D00E480068800B8D
:1053C00070B100BF00BF00BF00BF00BF00BF00BF83
:1053D00000BF00BF00BF00BF00BF401E0028F0D1CB
:1053E00005490868401C086010BDBDE810400AF07F
:1053F00041BC0000E0000024D00000240248816885
:105400000278114481607047D400002410B5032055
:1054100000F0B8F801F04CF90F490A68C2F3032311
:105420000E4AD35C03F01F03D840096801F00F0156
:10543000515C0B4A01F01F0120FA01F1116009498A
:1054400008600F2000F010F808B1012010BD00F036
:1054500059F8002010BD000018440258B43C01085F
:10546000E4000024E000002400207047144A417842
:105470001160111D03780A1D002B1CD043680B60BE
:10548000017BC37A090741EA0361837A41EAC34198
:10549000437B41EA8341837B41EA4341C37B41EA49
:1054A0000341437A41EA0321037A007841EA430148
:1054B00001431160704700200860106070470000D1
:1054C00098ED00E0BFF35F8F0448016821F480315C
:1054D00001600249002070310860704724ED00E04F
:1054E000074940F00100086005487038016841F440
:1054F00080310160BFF34F8FBFF36F8F70470000A3
:1055000094ED00E082B00748016841F002010160BB
:10551000006800F00200019000220F21901E02B0EE
:1055200000F010B8F4440258002809DB012100F013
:105530001F0291404009800000F1E020C0F80011F6
:1055400070470000F0B40D460D4B1B68C3F30223F7
:10555000C3F10704042C00D90424191D072901D222
:10556000002300E0DB1E012606FA04F1491E294053
:1055700099409E40761E16403143F0BC06F0B0BF05
:105580000CED00E000F00701054A10684FF6FF033C
:10559000184040EA012003490843106070470000AA
:1055A0000CED00E00000FA0570B514490A68D2431A
:1055B000520708D5096801F00701814201D0012096
:1055C00070BD002070BD0A6822F0070202430A6025
:1055D000FFF7EEFE0446094D4FF47A76083D06E0EB
:1055E000FFF7E6FE001BB04201D9012070BD28681C
:1055F000C0438004F4D4002070BD00000C48025861
:1056000010B501F00FF805490968054AC1F3021108
:10561000515C01F01F01C84010BD00002044025839
:10562000B43C010810B569490A6802F00302096830
:10563000C1F30531654B1B1D1B68C3F30013634C9D
:1056400014342468C4F3CC0414FB03F300EE103AC2
:10565000B8EE400A002971D09FED5D1A5B4BF7EE62
:10566000000A1033F2B39FED5B2A012A7FD0022A91
:105670007CD001EE901A1968F8EE611AC2EE212A68
:10568000C1F3080101EE901AF8EE611A40EE011A1A
:1056900031EEA00A22EE800A1968C1F3462101EE1C
:1056A000101AB8EE411A31EE201AC0EE011ABCEE03
:1056B000E11A80ED001A1968C1F3064101EE101AD3
:1056C000B8EE411A31EE201AC0EE011ABCEEE11A12
:1056D00080ED011A1968C1F3066101EE101AB8EEE7
:1056E000411A00E008E071EE200A80EE201ABCEEBC
:1056F000C10A80ED020A10BD344A283A1468A40693
:105700001ED51268C2F3C104334AE24001EE902A6A
:10571000F8EE612A01EE901A1968F8EE611A82EE2D
:10572000A12AC1F3080101EE901AF8EE611A40EEC9
:10573000011A31EEA00A22EE000AADE741E016E0C0
:1057400001EE901ADFED252A1968F8EE611A82EE53
:10575000A12AC1F3080101EE901AF8EE611A40EE99
:10576000011A31EEA00A22EE000A95E713E001EEDD
:10577000901A1968F8EE611AC2EE212AC1F30801E5
:1057800001EE901AF8EE611A40EE011A31EEA00A0D
:1057900022EE800A80E701EE901ADFED112A1968E7
:1057A000F8EE611A82EEA12AC1F3080101EE901A07
:1057B000F8EE611A40EE011A31EEA00A22EE000A5C
:1057C0006AE7002101604160816010BD28440258F1
:1057D000000000390024744A0090D0030024744C67
:1057E00020BCBE4B10B569490A6802F00302096883
:1057F000C1F30551654B1B1D1B68C3F30023634CAC
:105800001C342468C4F3CC0414FB03F300EE103AF8
:10581000B8EE400A002971D09FED5D1A5B4BF7EEA0
:10582000000A1833F2B39FED5B2A012A7FD0022AC7
:105830007CD001EE901A1968F8EE611AC2EE212AA6
:10584000C1F3080101EE901AF8EE611A40EE011A58
:1058500031EEA00A22EE800A1968C1F3462101EE5A
:10586000101AB8EE411A31EE201AC0EE011ABCEE41
:10587000E11A80ED001A1968C1F3064101EE101A11
:10588000B8EE411A31EE201AC0EE011ABCEEE11A50
:1058900080ED011A1968C1F3066101EE101AB8EE25
:1058A000411A00E008E071EE200A80EE201ABCEEFA
:1058B000C10A80ED020A10BD344A283A1468A406D1
:1058C0001ED51268C2F3C104334AE24001EE902AA9
:1058D000F8EE612A01EE901A1968F8EE611A82EE6C
:1058E000A12AC1F3080101EE901AF8EE611A40EE08
:1058F000011A31EEA00A22EE000AADE741E016E0FF
:1059000001EE901ADFED252A1968F8EE611A82EE91
:10591000A12AC1F3080101EE901AF8EE611A40EED7
:10592000011A31EEA00A22EE000A95E713E001EE1B
:10593000901A1968F8EE611AC2EE212AC1F3080123
:1059400001EE901AF8EE611A40EE011A31EEA00A4B
:1059500022EE800A80E701EE901ADFED112A196825
:10596000F8EE611A82EEA12AC1F3080101EE901A45
:10597000F8EE611A40EE011A31EEA00A22EE000A9A
:105980006AE7002101604160816010BD284402582F
:10599000000000390024744A0090D0030024744CA5
:1059A00020BCBE4B2DE9FC5F044600250026F94FC4
:1059B0002068DFF8E483C043010104F1080001908E
:1059C00004F1280000900DD4A06EB8B1B0F5801F8E
:1059D00019D0B0F5001F1CD0B0F5401F00D0012534
:1059E000EDB12E462088C043C00535D4A06D0528F2
:1059F0002FD2DFE800F01D22282F2F00386840F456
:105A000000303860ECE70198022104F073FB054692
:105A1000E6E70098022104F0FFFB0546E0E7D8F82E
:105A20000000A16E20F440100843C8F80000D9E738
:105A3000386840F4003038600CE00198002104F030
:105A400059FB054606E00098002104F0E5FB0546F9
:105A500000E0012565B12E462088C043800518D49A
:105A6000E06D802831D00CDC20B340280ED126E038
:105A7000D8F80000A16D20F007000843C8F8000026
:105A8000EAE7C02803D0B0F5807F00D0012515B328
:105A90002E462088DFF80493C04340052DD4D4F867
:105AA000A800B0F5800F43D01EDCA8B3B0F5001FEE
:105AB00020D137E0386840F400303860E7E70198DB
:105AC000002104F017FB0546E1E70098002104F0EF
:105AD000A3FB0546DBE7D8F80000E16D20F4E07099
